{"abi":[{"type":"constructor","inputs":[{"name":"_stakingToken","type":"address","internalType":"address"},{"name":"_rewardToken","type":"address","internalType":"address"},{"name":"_rewardRatePerSecond","type":"uint256","internalType":"uint256"},{"name":"_treasury","type":"address","internalType":"address"},{"name":"_owner","type":"address","internalType":"address"}],"stateMutability":"nonpayable"},{"type":"function","name":"BPS_DENOMINATOR","inputs":[],"outputs":[{"name":"","type":"uint256","internalType":"uint256"}],"stateMutability":"view"},{"type":"function","name":"MAX_PERFORMANCE_FEE","inputs":[],"outputs":[{"name":"","type":"uint256","internalType":"uint256"}],"stateMutability":"view"},{"type":"function","name":"MAX_REFERRAL_BONUS","inputs":[],"outputs":[{"name":"","type":"uint256","internalType":"uint256"}],"stateMutability":"view"},{"type":"function","name":"PRECISION","inputs":[],"outputs":[{"name":"","type":"uint256","internalType":"uint256"}],"stateMutability":"view"},{"type":"function","name":"SECONDS_PER_YEAR","inputs":[],"outputs":[{"name":"","type":"uint256","internalType":"uint256"}],"stateMutability":"view"},{"type":"function","name":"claimRewards","inputs":[],"outputs":[],"stateMutability":"nonpayable"},{"type":"function","name":"currentAPR","inputs":[],"outputs":[{"name":"","type":"uint256","internalType":"uint256"}],"stateMutability":"view"},{"type":"function","name":"earned","inputs":[{"name":"_user","type":"address","internalType":"address"}],"outputs":[{"name":"","type":"uint256","internalType":"uint256"}],"stateMutability":"view"},{"type":"function","name":"earnedAfterFee","inputs":[{"name":"_user","type":"address","internalType":"address"}],"outputs":[{"name":"net","type":"uint256","internalType":"uint256"},{"name":"fee","type":"uint256","internalType":"uint256"}],"stateMutability":"view"},{"type":"function","name":"emergencyWithdraw","inputs":[],"outputs":[],"stateMutability":"nonpayable"},{"type":"function","name":"exit","inputs":[],"outputs":[],"stateMutability":"nonpayable"},{"type":"function","name":"fundRewards","inputs":[{"name":"_amount","type":"uint256","internalType":"uint256"}],"outputs":[],"stateMutability":"nonpayable"},{"type":"function","name":"getTierConfig","inputs":[{"name":"_tier","type":"uint8","internalType":"enum StakingV2.Tier"}],"outputs":[{"name":"","type":"tuple","internalType":"struct StakingV2.TierConfig","components":[{"name":"lockDuration","type":"uint256","internalType":"uint256"},{"name":"multiplierBps","type":"uint256","internalType":"uint256"},{"name":"name","type":"string","internalType":"string"}]}],"stateMutability":"view"},{"type":"function","name":"lastUpdateTime","inputs":[],"outputs":[{"name":"","type":"uint256","internalType":"uint256"}],"stateMutability":"view"},{"type":"function","name":"owner","inputs":[],"outputs":[{"name":"","type":"address","internalType":"address"}],"stateMutability":"view"},{"type":"function","name":"pause","inputs":[],"outputs":[],"stateMutability":"nonpayable"},{"type":"function","name":"paused","inputs":[],"outputs":[{"name":"","type":"bool","internalType":"bool"}],"stateMutability":"view"},{"type":"function","name":"performanceFeeBps","inputs":[],"outputs":[{"name":"","type":"uint256","internalType":"uint256"}],"stateMutability":"view"},{"type":"function","name":"recoverERC20","inputs":[{"name":"_token","type":"address","internalType":"address"},{"name":"_amount","type":"uint256","internalType":"uint256"}],"outputs":[],"stateMutability":"nonpayable"},{"type":"function","name":"referralBonusBps","inputs":[],"outputs":[{"name":"","type":"uint256","internalType":"uint256"}],"stateMutability":"view"},{"type":"function","name":"referralCount","inputs":[{"name":"","type":"address","internalType":"address"}],"outputs":[{"name":"","type":"uint256","internalType":"uint256"}],"stateMutability":"view"},{"type":"function","name":"referralEarnings","inputs":[{"name":"","type":"address","internalType":"address"}],"outputs":[{"name":"","type":"uint256","internalType":"uint256"}],"stateMutability":"view"},{"type":"function","name":"renounceOwnership","inputs":[],"outputs":[],"stateMutability":"nonpayable"},{"type":"function","name":"rewardPerToken","inputs":[],"outputs":[{"name":"","type":"uint256","internalType":"uint256"}],"stateMutability":"view"},{"type":"function","name":"rewardPerTokenStored","inputs":[],"outputs":[{"name":"","type":"uint256","internalType":"uint256"}],"stateMutability":"view"},{"type":"function","name":"rewardRatePerSecond","inputs":[],"outputs":[{"name":"","type":"uint256","internalType":"uint256"}],"stateMutability":"view"},{"type":"function","name":"rewardToken","inputs":[],"outputs":[{"name":"","type":"address","internalType":"contract IERC20"}],"stateMutability":"view"},{"type":"function","name":"setPerformanceFee","inputs":[{"name":"_feeBps","type":"uint256","internalType":"uint256"}],"outputs":[],"stateMutability":"nonpayable"},{"type":"function","name":"setReferralBonus","inputs":[{"name":"_bps","type":"uint256","internalType":"uint256"}],"outputs":[],"stateMutability":"nonpayable"},{"type":"function","name":"setRewardRate","inputs":[{"name":"_newRate","type":"uint256","internalType":"uint256"}],"outputs":[],"stateMutability":"nonpayable"},{"type":"function","name":"setTreasury","inputs":[{"name":"_treasury","type":"address","internalType":"address"}],"outputs":[],"stateMutability":"nonpayable"},{"type":"function","name":"stake","inputs":[{"name":"_amount","type":"uint256","internalType":"uint256"},{"name":"_tier","type":"uint8","internalType":"enum StakingV2.Tier"},{"name":"_referrer","type":"address","internalType":"address"}],"outputs":[],"stateMutability":"nonpayable"},{"type":"function","name":"stakingToken","inputs":[],"outputs":[{"name":"","type":"address","internalType":"contract IERC20"}],"stateMutability":"view"},{"type":"function","name":"tierConfigs","inputs":[{"name":"","type":"uint8","internalType":"enum StakingV2.Tier"}],"outputs":[{"name":"lockDuration","type":"uint256","internalType":"uint256"},{"name":"multiplierBps","type":"uint256","internalType":"uint256"},{"name":"name","type":"string","internalType":"string"}],"stateMutability":"view"},{"type":"function","name":"timeUntilUnlock","inputs":[{"name":"_user","type":"address","internalType":"address"}],"outputs":[{"name":"","type":"uint256","internalType":"uint256"}],"stateMutability":"view"},{"type":"function","name":"totalStaked","inputs":[],"outputs":[{"name":"","type":"uint256","internalType":"uint256"}],"stateMutability":"view"},{"type":"function","name":"transferOwnership","inputs":[{"name":"newOwner","type":"address","internalType":"address"}],"outputs":[],"stateMutability":"nonpayable"},{"type":"function","name":"treasury","inputs":[],"outputs":[{"name":"","type":"address","internalType":"address"}],"stateMutability":"view"},{"type":"function","name":"unpause","inputs":[],"outputs":[],"stateMutability":"nonpayable"},{"type":"function","name":"updateTierConfig","inputs":[{"name":"_tier","type":"uint8","internalType":"enum StakingV2.Tier"},{"name":"_lockDuration","type":"uint256","internalType":"uint256"},{"name":"_multiplierBps","type":"uint256","internalType":"uint256"}],"outputs":[],"stateMutability":"nonpayable"},{"type":"function","name":"userInfo","inputs":[{"name":"","type":"address","internalType":"address"}],"outputs":[{"name":"stakedAmount","type":"uint256","internalType":"uint256"},{"name":"rewardPerTokenPaid","type":"uint256","internalType":"uint256"},{"name":"pendingRewards","type":"uint256","internalType":"uint256"},{"name":"lockUntil","type":"uint256","internalType":"uint256"},{"name":"stakedAt","type":"uint256","internalType":"uint256"},{"name":"tier","type":"uint8","internalType":"enum StakingV2.Tier"},{"name":"referrer","type":"address","internalType":"address"}],"stateMutability":"view"},{"type":"function","name":"withdraw","inputs":[{"name":"_amount","type":"uint256","internalType":"uint256"}],"outputs":[],"stateMutability":"nonpayable"},{"type":"event","name":"EmergencyWithdraw","inputs":[{"name":"user","type":"address","indexed":true,"internalType":"address"},{"name":"amount","type":"uint256","indexed":false,"internalType":"uint256"}],"anonymous":false},{"type":"event","name":"OwnershipTransferred","inputs":[{"name":"previousOwner","type":"address","indexed":true,"internalType":"address"},{"name":"newOwner","type":"address","indexed":true,"internalType":"address"}],"anonymous":false},{"type":"event","name":"Paused","inputs":[{"name":"account","type":"address","indexed":false,"internalType":"address"}],"anonymous":false},{"type":"event","name":"PerformanceFeeUpdated","inputs":[{"name":"newFeeBps","type":"uint256","indexed":false,"internalType":"uint256"}],"anonymous":false},{"type":"event","name":"ReferralBonus","inputs":[{"name":"referrer","type":"address","indexed":true,"internalType":"address"},{"name":"referee","type":"address","indexed":true,"internalType":"address"},{"name":"bonus","type":"uint256","indexed":false,"internalType":"uint256"}],"anonymous":false},{"type":"event","name":"RewardClaimed","inputs":[{"name":"user","type":"address","indexed":true,"internalType":"address"},{"name":"reward","type":"uint256","indexed":false,"internalType":"uint256"},{"name":"fee","type":"uint256","indexed":false,"internalType":"uint256"}],"anonymous":false},{"type":"event","name":"RewardRateUpdated","inputs":[{"name":"newRate","type":"uint256","indexed":false,"internalType":"uint256"}],"anonymous":false},{"type":"event","name":"RewardsFunded","inputs":[{"name":"amount","type":"uint256","indexed":false,"internalType":"uint256"}],"anonymous":false},{"type":"event","name":"Staked","inputs":[{"name":"user","type":"address","indexed":true,"internalType":"address"},{"name":"amount","type":"uint256","indexed":false,"internalType":"uint256"},{"name":"tier","type":"uint8","indexed":false,"internalType":"enum StakingV2.Tier"},{"name":"lockUntil","type":"uint256","indexed":false,"internalType":"uint256"}],"anonymous":false},{"type":"event","name":"TreasuryUpdated","inputs":[{"name":"newTreasury","type":"address","indexed":false,"internalType":"address"}],"anonymous":false},{"type":"event","name":"Unpaused","inputs":[{"name":"account","type":"address","indexed":false,"internalType":"address"}],"anonymous":false},{"type":"event","name":"Withdrawn","inputs":[{"name":"user","type":"address","indexed":true,"internalType":"address"},{"name":"amount","type":"uint256","indexed":false,"internalType":"uint256"}],"anonymous":false},{"type":"error","name":"EnforcedPause","inputs":[]},{"type":"error","name":"ExpectedPause","inputs":[]},{"type":"error","name":"OwnableInvalidOwner","inputs":[{"name":"owner","type":"address","internalType":"address"}]},{"type":"error","name":"OwnableUnauthorizedAccount","inputs":[{"name":"account","type":"address","internalType":"address"}]},{"type":"error","name":"ReentrancyGuardReentrantCall","inputs":[]},{"type":"error","name":"SafeERC20FailedOperation","inputs":[{"name":"token","type":"address","internalType":"address"}]}],"bytecode":{"object":"0x60c06040526101f460065561012c6007553480156200001c575f80fd5b5060405162002867380380620028678339810160408190526200003f91620004eb565b8060017f9b779b17422d0df92223018b32b4d1fa46e071723d6817e2486d003becc55f00556001600160a01b0381166200009357604051631e4fbdf760e01b81525f60048201526024015b60405180910390fd5b6200009e8162000480565b506001600160a01b038516620000f75760405162461bcd60e51b815260206004820152601560248201527f496e76616c6964207374616b696e6720746f6b656e000000000000000000000060448201526064016200008a565b6001600160a01b0384166200014f5760405162461bcd60e51b815260206004820152601460248201527f496e76616c69642072657761726420746f6b656e00000000000000000000000060448201526064016200008a565b6001600160a01b0382166200019a5760405162461bcd60e51b815260206004820152601060248201526f496e76616c696420747265617375727960801b60448201526064016200008a565b6001600160a01b0385811660805284811660a0526001849055600880546001600160a01b031916918416919091179055426002556040805160608101825262093a808152612710602080830191825283518085018552600681526542726f6e7a6560d01b818301529383019384525f80526005905281517f05b8ccbb9d4d8fb16ea74ce3c29a41f1b461fbdaff4714a0d9a8eb05499746bc90815590517f05b8ccbb9d4d8fb16ea74ce3c29a41f1b461fbdaff4714a0d9a8eb05499746bd5591519091907f05b8ccbb9d4d8fb16ea74ce3c29a41f1b461fbdaff4714a0d9a8eb05499746be906200028c908262000600565b50905050604051806060016040528062278d008152602001613a9881526020016040518060400160405280600681526020016529b4b63b32b960d11b81525081525060055f60016003811115620002e757620002e76200054e565b6003811115620002fb57620002fb6200054e565b815260208082019290925260409081015f208351815591830151600183015582015160028201906200032e908262000600565b5090505060405180606001604052806276a7008152602001614e2081526020016040518060400160405280600481526020016311dbdb1960e21b81525081525060055f600260038111156200038757620003876200054e565b60038111156200039b576200039b6200054e565b815260208082019290925260409081015f20835181559183015160018301558201516002820190620003ce908262000600565b5090505060405180606001604052806301e133808152602001617530815260200160405180604001604052806007815260200166111a585b5bdb9960ca1b81525081525060055f6003808111156200042a576200042a6200054e565b60038111156200043e576200043e6200054e565b815260208082019290925260409081015f2083518155918301516001830155820151600282019062000471908262000600565b509050505050505050620006cc565b5f80546001600160a01b038381166001600160a01b0319831681178455604051919092169283917f8be0079c531659141344cd1fd0a4f28419497f9722a3daafe3b4186f6b6457e09190a35050565b80516001600160a01b0381168114620004e6575f80fd5b919050565b5f805f805f60a0868803121562000500575f80fd5b6200050b86620004cf565b94506200051b60208701620004cf565b9350604086015192506200053260608701620004cf565b91506200054260808701620004cf565b90509295509295909350565b634e487b7160e01b5f52602160045260245ffd5b634e487b7160e01b5f52604160045260245ffd5b600181811c908216806200058b57607f821691505b602082108103620005aa57634e487b7160e01b5f52602260045260245ffd5b50919050565b601f821115620005fb57805f5260205f20601f840160051c81016020851015620005d75750805b601f840160051c820191505b81811015620005f8575f8155600101620005e3565b50505b505050565b81516001600160401b038111156200061c576200061c62000562565b62000634816200062d845462000576565b84620005b0565b602080601f8311600181146200066a575f8415620006525750858301515b5f19600386901b1c1916600185901b178555620006c4565b5f85815260208120601f198616915b828110156200069a5788860151825594840194600190910190840162000679565b5085821015620006b857878501515f19600388901b60f8161c191681555b505060018460011b0185555b505050505050565b60805160a051612133620007345f395f818161058f01528181610c7b01528181610d27015281816118f301528181611931015281816119b20152611a3801525f818161038c01528181610b5101528181610bfa0152818161136a01526116fb01526121335ff3fe608060405234801561000f575f80fd5b5060043610610254575f3560e01c80639da9db2a11610140578063d0228e8f116100bf578063e1a4521811610084578063e1a4521814610548578063e6a69ab814610551578063e9fad8ee1461055c578063f0f4426014610564578063f2fde38b14610577578063f7c618c11461058a575f80fd5b8063d0228e8f146104f2578063d38cd9bf14610505578063db2e21bc14610518578063db74559b14610520578063df136d651461053f575f80fd5b8063c022c52311610105578063c022c5231461047a578063c07b528a1461049a578063c8f33c91146104b9578063cd3daf9d146104c2578063cfbbb017146104ca575f80fd5b80639da9db2a146104245780639e447fc614610446578063aaf5eb6814610459578063b9d4e87914610468578063bdca916514610471575f80fd5b806370897b23116101d75780638456cb591161019c5780638456cb59146103ca5780638980f11f146103d25780638da5cb5b146103e5578063934f92fc146103f557806393707a19146103fe5780639a037aa014610411575f80fd5b806370897b231461036c578063715018a61461037f57806372f702f3146103875780637cc2a960146103ae578063817b1cd2146103c1575f80fd5b80633f4ba83a1161021d5780633f4ba83a1461030c5780635c975abb146103145780635d773b2c14610330578063605779811461033957806361d027b314610341575f80fd5b80628cc262146102585780631959a0021461027e578063195ad3d5146102e65780632e1a7d4d146102ef578063372500ab14610304575b5f80fd5b61026b610266366004611dd6565b6105b1565b6040519081526020015b60405180910390f35b6102d361028c366004611dd6565b60096020525f9081526040902080546001820154600283015460038401546004850154600590950154939492939192909160ff81169061010090046001600160a01b031687565b6040516102759796959493929190611e23565b61026b60075481565b6103026102fd366004611e6f565b610615565b005b610302610696565b610302610715565b5f54600160a01b900460ff166040519015158152602001610275565b61026b60015481565b61026b610725565b600854610354906001600160a01b031681565b6040516001600160a01b039091168152602001610275565b61030261037a366004611e6f565b610764565b6103026107ee565b6103547f000000000000000000000000000000000000000000000000000000000000000081565b6103026103bc366004611e94565b6107ff565b61026b60045481565b610302610be0565b6103026103e0366004611ecd565b610bf0565b5f546001600160a01b0316610354565b61026b6103e881565b61030261040c366004611e6f565b610d12565b61030261041f366004611e6f565b610d7f565b610437610432366004611ef5565b610dcf565b60405161027593929190611f51565b610302610454366004611e6f565b610e77565b61026b670de0b6b3a764000081565b61026b60065481565b61026b6107d081565b61048d610488366004611ef5565b610f09565b6040516102759190611f78565b61026b6104a8366004611dd6565b600a6020525f908152604090205481565b61026b60025481565b61026b611013565b6104dd6104d8366004611dd6565b61106c565b60408051928352602083019190915201610275565b61026b610500366004611dd6565b6111d0565b610302610513366004611fae565b611204565b6103026112d7565b61026b61052e366004611dd6565b600b6020525f908152604090205481565b61026b60035481565b61026b61271081565b61026b6301e1338081565b6103026113de565b610302610572366004611dd6565b6114bf565b610302610585366004611dd6565b61155e565b6103547f000000000000000000000000000000000000000000000000000000000000000081565b6001600160a01b0381165f90815260096020526040812060028101546001820154670de0b6b3a7640000906105e4611013565b6105ee9190611ff2565b83546105fa919061200b565b6106049190612022565b61060e9190612041565b9392505050565b61061d611598565b6106256115b3565b3361062e611013565b600355426002556001600160a01b03811615610673576001600160a01b0381165f908152600960205260409020610664826105b1565b60028201556003546001909101555b61067c826115dd565b5061069360015f805160206120de83398151915255565b50565b61069e611598565b6106a66115b3565b336106af611013565b600355426002556001600160a01b038116156106f4576001600160a01b0381165f9081526009602052604090206106e5826105b1565b60028201556003546001909101555b6106fc61175b565b5061071360015f805160206120de83398151915255565b565b61071d611b12565b610713611b3e565b5f6004545f0361073457505f90565b6004546301e13380600154610749919061200b565b6107559061271061200b565b61075f9190612022565b905090565b61076c611b12565b6107d08111156107b25760405162461bcd60e51b815260206004820152600c60248201526b08ccaca40e8dede40d0d2ced60a31b60448201526064015b60405180910390fd5b60068190556040518181527f9b49d0cd76012d9c67241c2f68f836efbaf50ea29901a250040671402d5263f5906020015b60405180910390a150565b6107f6611b12565b6107135f611b92565b610807611598565b61080f6115b3565b33610818611013565b600355426002556001600160a01b0381161561085d576001600160a01b0381165f90815260096020526040902061084e826105b1565b60028201556003546001909101555b5f841161089d5760405162461bcd60e51b815260206004820152600e60248201526d043616e6e6f74207374616b6520360941b60448201526064016107a9565b336001600160a01b038316036108ed5760405162461bcd60e51b815260206004820152601560248201527421b0b73737ba103932b332b9103cb7bab939b2b63360591b60448201526064016107a9565b335f9081526009602052604081209060058186600381111561091157610911611def565b600381111561092257610922611def565b81526020019081526020015f206040518060600160405290815f82015481526020016001820154815260200160028201805461095d90612054565b80601f016020809104026020016040519081016040528092919081815260200182805461098990612054565b80156109d45780601f106109ab576101008083540402835291602001916109d4565b820191905f5260205f20905b8154815290600101906020018083116109b757829003601f168201915b50505091909252505083549192505015610a5f57600582015460ff166003811115610a0157610a01611def565b60ff16856003811115610a1657610a16611def565b60ff161015610a5f5760405162461bcd60e51b815260206004820152601560248201527421b0b73737ba103237bbb733b930b232903a34b2b960591b60448201526064016107a9565b600582015461010090046001600160a01b0316158015610a8757506001600160a01b03841615155b15610ad357600582018054610100600160a81b0319166101006001600160a01b038716908102919091179091555f908152600b60205260408120805491610acd8361208c565b91905055505b85825f015f828254610ae59190612041565b90915550508051610af69042612041565b600380840191909155426004840155600583018054879260ff19909116906001908490811115610b2857610b28611def565b02179055508560045f828254610b3e9190612041565b90915550610b7990506001600160a01b037f000000000000000000000000000000000000000000000000000000000000000016333089611be1565b336001600160a01b03167fbde7f0ba1630d25515c7ab99ba47d5640b7ffb4c673b2a5464ae67919558929887878560030154604051610bba939291906120a4565b60405180910390a2505050610bdb60015f805160206120de83398151915255565b505050565b610be8611b12565b610713611c1d565b610bf8611b12565b7f00000000000000000000000000000000000000000000000000000000000000006001600160a01b0316826001600160a01b031603610c795760405162461bcd60e51b815260206004820152601c60248201527f43616e6e6f74207265636f766572207374616b696e6720746f6b656e0000000060448201526064016107a9565b7f00000000000000000000000000000000000000000000000000000000000000006001600160a01b0316826001600160a01b031603610cfa5760405162461bcd60e51b815260206004820152601b60248201527f43616e6e6f74207265636f7665722072657761726420746f6b656e000000000060448201526064016107a9565b610d0e6001600160a01b0383163383611c5f565b5050565b610d1a611b12565b610d4f6001600160a01b037f000000000000000000000000000000000000000000000000000000000000000016333084611be1565b6040518181527fe42dde25409a3e8c7c119c1c722610d9e9bd96e73e3cead774863c9ffdd870d6906020016107e3565b610d87611b12565b6103e8811115610dca5760405162461bcd60e51b815260206004820152600e60248201526d084dedceae640e8dede40d0d2ced60931b60448201526064016107a9565b600755565b60056020525f908152604090208054600182015460028301805492939192610df690612054565b80601f0160208091040260200160405190810160405280929190818152602001828054610e2290612054565b8015610e6d5780601f10610e4457610100808354040283529160200191610e6d565b820191905f5260205f20905b815481529060010190602001808311610e5057829003601f168201915b5050505050905083565b610e7f611b12565b5f610e88611013565b600355426002556001600160a01b03811615610ecd576001600160a01b0381165f908152600960205260409020610ebe826105b1565b60028201556003546001909101555b60018290556040518281527f41d466ebd06fb97e7786086ac8b69b7eb7da798592036251291d34e9791cde019060200160405180910390a15050565b610f2b60405180606001604052805f81526020015f8152602001606081525090565b60055f836003811115610f4057610f40611def565b6003811115610f5157610f51611def565b81526020019081526020015f206040518060600160405290815f820154815260200160018201548152602001600282018054610f8c90612054565b80601f0160208091040260200160405190810160405280929190818152602001828054610fb890612054565b80156110035780601f10610fda57610100808354040283529160200191611003565b820191905f5260205f20905b815481529060010190602001808311610fe657829003601f168201915b5050505050815250509050919050565b5f6004545f03611024575060035490565b600454670de0b6b3a7640000600154600254426110419190611ff2565b61104b919061200b565b611055919061200b565b61105f9190612022565b60035461075f9190612041565b6001600160a01b0381165f9081526009602052604081206005808201548392918391829060ff1660038111156110a4576110a4611def565b60038111156110b5576110b5611def565b81526020019081526020015f206040518060600160405290815f8201548152602001600182015481526020016002820180546110f090612054565b80601f016020809104026020016040519081016040528092919081815260200182805461111c90612054565b80156111675780601f1061113e57610100808354040283529160200191611167565b820191905f5260205f20905b81548152906001019060200180831161114a57829003601f168201915b50505050508152505090505f61117c866105b1565b90505f612710836020015183611192919061200b565b61119c9190612022565b9050612710600654826111af919061200b565b6111b99190612022565b94506111c58582611ff2565b955050505050915091565b6001600160a01b0381165f908152600960205260408120600301544281116111fa57505f92915050565b61060e4282611ff2565b61120c611b12565b61271081101561125e5760405162461bcd60e51b815260206004820152601860248201527f4d756c7469706c696572206d757374206265203e3d203178000000000000000060448201526064016107a9565b8160055f85600381111561127457611274611def565b600381111561128557611285611def565b81526020019081526020015f205f01819055508060055f8560038111156112ae576112ae611def565b60038111156112bf576112bf611def565b815260208101919091526040015f2060010155505050565b6112df611598565b6112e7611c94565b335f90815260096020526040902080548061133a5760405162461bcd60e51b81526020600482015260136024820152724e6f7468696e6720746f20776974686472617760681b60448201526064016107a9565b5f8083556002830181905560048054839290611357908490611ff2565b9091555061139190506001600160a01b037f0000000000000000000000000000000000000000000000000000000000000000163383611c5f565b60405181815233907f5fafa99d0643513820be26656b45130b01e1c03062e1266bf36f88cbd3bd96959060200160405180910390a2505061071360015f805160206120de83398151915255565b6113e6611598565b6113ee6115b3565b336113f7611013565b600355426002556001600160a01b0381161561143c576001600160a01b0381165f90815260096020526040902061142d826105b1565b60028201556003546001909101555b335f90815260096020526040902060038101544210156114945760405162461bcd60e51b8152602060048201526013602482015272151bdad95b9cc81cdd1a5b1b081b1bd8dad959606a1b60448201526064016107a9565b805461149f906115dd565b6114a761175b565b505061071360015f805160206120de83398151915255565b6114c7611b12565b6001600160a01b0381166115105760405162461bcd60e51b815260206004820152601060248201526f496e76616c696420747265617375727960801b60448201526064016107a9565b600880546001600160a01b0319166001600160a01b0383169081179091556040519081527f7dae230f18360d76a040c81f050aa14eb9d6dc7901b20fc5d855e2a20fe814d1906020016107e3565b611566611b12565b6001600160a01b03811661158f57604051631e4fbdf760e01b81525f60048201526024016107a9565b61069381611b92565b6115a0611cbd565b60025f805160206120de83398151915255565b5f54600160a01b900460ff16156107135760405163d93c066560e01b815260040160405180910390fd5b335f9081526009602052604090208161162c5760405162461bcd60e51b8152602060048201526011602482015270043616e6e6f74207769746864726177203607c1b60448201526064016107a9565b80548211156116745760405162461bcd60e51b8152602060048201526014602482015273496e73756666696369656e742062616c616e636560601b60448201526064016107a9565b80600301544210156116be5760405162461bcd60e51b8152602060048201526013602482015272151bdad95b9cc81cdd1a5b1b081b1bd8dad959606a1b60448201526064016107a9565b81815f015f8282546116d09190611ff2565b925050819055508160045f8282546116e89190611ff2565b9091555061172290506001600160a01b037f0000000000000000000000000000000000000000000000000000000000000000163384611c5f565b60405182815233907f7084f5476618d8e60b11ef0d7d3f06914655adb8793e28ff7f018d4c76d505d59060200160405180910390a25050565b335f9081526009602052604090206002810154806117a85760405162461bcd60e51b815260206004820152600a6024820152694e6f207265776172647360b01b60448201526064016107a9565b6005828101545f9190829060ff1660038111156117c7576117c7611def565b60038111156117d8576117d8611def565b81526020019081526020015f206040518060600160405290815f82015481526020016001820154815260200160028201805461181390612054565b80601f016020809104026020016040519081016040528092919081815260200182805461183f90612054565b801561188a5780601f106118615761010080835404028352916020019161188a565b820191905f5260205f20905b81548152906001019060200180831161186d57829003601f168201915b50505050508152505090505f6127108260200151846118a9919061200b565b6118b39190612022565b90505f612710600654836118c7919061200b565b6118d19190612022565b90505f6118de8284611ff2565b5f6002880155905061191a6001600160a01b037f0000000000000000000000000000000000000000000000000000000000000000163383611c5f565b811561195a5760085461195a906001600160a01b037f00000000000000000000000000000000000000000000000000000000000000008116911684611c5f565b600586015461010090046001600160a01b03168015611ace575f61271060075484611985919061200b565b61198f9190612022565b90505f81118015611a2657506040516370a0823160e01b815230600482015281907f00000000000000000000000000000000000000000000000000000000000000006001600160a01b0316906370a0823190602401602060405180830381865afa1580156119ff573d5f803e3d5ffd5b505050506040513d601f19601f82011682018060405250810190611a2391906120c6565b10155b15611acc57611a5f6001600160a01b037f0000000000000000000000000000000000000000000000000000000000000000168383611c5f565b6001600160a01b0382165f908152600a602052604081208054839290611a86908490612041565b909155505060405181815233906001600160a01b038416907f9be71e54c914a5355f90883acdff2a1d75cebe9a1c6f15305d1fb0c28d7d76309060200160405180910390a35b505b604080518381526020810185905233917ff01da32686223933d8a18a391060918c7f11a3648639edd87ae013e2e2731743910160405180910390a250505050505050565b5f546001600160a01b031633146107135760405163118cdaa760e01b81523360048201526024016107a9565b611b46611c94565b5f805460ff60a01b191690557f5db9ee0a495bf2e6ff9c91a7834c1ba4fdd244a5e8aa4e537bd38aeae4b073aa335b6040516001600160a01b03909116815260200160405180910390a1565b5f80546001600160a01b038381166001600160a01b0319831681178455604051919092169283917f8be0079c531659141344cd1fd0a4f28419497f9722a3daafe3b4186f6b6457e09190a35050565b611bef848484846001611cec565b611c1757604051635274afe760e01b81526001600160a01b03851660048201526024016107a9565b50505050565b611c256115b3565b5f805460ff60a01b1916600160a01b1790557f62e78cea01bee320cd4e420270b5ea74000d11b0c9f74754ebdbfc544b05a258611b753390565b611c6c8383836001611d59565b610bdb57604051635274afe760e01b81526001600160a01b03841660048201526024016107a9565b5f54600160a01b900460ff1661071357604051638dfc202b60e01b815260040160405180910390fd5b5f805160206120de8339815191525460020361071357604051633ee5aeb560e01b815260040160405180910390fd5b6040516323b872dd60e01b5f8181526001600160a01b038781166004528616602452604485905291602083606481808c5af1925060015f51148316611d48578383151615611d3c573d5f823e3d81fd5b5f883b113d1516831692505b604052505f60605295945050505050565b60405163a9059cbb60e01b5f8181526001600160a01b038616600452602485905291602083604481808b5af1925060015f51148316611daf578383151615611da3573d5f823e3d81fd5b5f873b113d1516831692505b60405250949350505050565b80356001600160a01b0381168114611dd1575f80fd5b919050565b5f60208284031215611de6575f80fd5b61060e82611dbb565b634e487b7160e01b5f52602160045260245ffd5b60048110611e1f57634e487b7160e01b5f52602160045260245ffd5b9052565b5f60e082019050888252876020830152866040830152856060830152846080830152611e5260a0830185611e03565b6001600160a01b039290921660c091909101529695505050505050565b5f60208284031215611e7f575f80fd5b5035919050565b803560048110611dd1575f80fd5b5f805f60608486031215611ea6575f80fd5b83359250611eb660208501611e86565b9150611ec460408501611dbb565b90509250925092565b5f8060408385031215611ede575f80fd5b611ee783611dbb565b946020939093013593505050565b5f60208284031215611f05575f80fd5b61060e82611e86565b5f81518084525f5b81811015611f3257602081850181015186830182015201611f16565b505f602082860101526020601f19601f83011685010191505092915050565b838152826020820152606060408201525f611f6f6060830184611f0e565b95945050505050565b6020815281516020820152602082015160408201525f6040830151606080840152611fa66080840182611f0e565b949350505050565b5f805f60608486031215611fc0575f80fd5b611fc984611e86565b95602085013595506040909401359392505050565b634e487b7160e01b5f52601160045260245ffd5b8181038181111561200557612005611fde565b92915050565b808202811582820484141761200557612005611fde565b5f8261203c57634e487b7160e01b5f52601260045260245ffd5b500490565b8082018082111561200557612005611fde565b600181811c9082168061206857607f821691505b60208210810361208657634e487b7160e01b5f52602260045260245ffd5b50919050565b5f6001820161209d5761209d611fde565b5060010190565b838152606081016120b86020830185611e03565b826040830152949350505050565b5f602082840312156120d6575f80fd5b505191905056fe9b779b17422d0df92223018b32b4d1fa46e071723d6817e2486d003becc55f00a264697066735822122094306f128b8786fbf8d04a9facd3879e3ffd1dc181e917a0949137468b83c81564736f6c63430008180033","linkReferences":{}},"methodIdentifiers":{"BPS_DENOMINATOR()":"e1a45218","MAX_PERFORMANCE_FEE()":"bdca9165","MAX_REFERRAL_BONUS()":"934f92fc","PRECISION()":"aaf5eb68","SECONDS_PER_YEAR()":"e6a69ab8","claimRewards()":"372500ab","currentAPR()":"60577981","earned(address)":"008cc262","earnedAfterFee(address)":"cfbbb017","emergencyWithdraw()":"db2e21bc","exit()":"e9fad8ee","fundRewards(uint256)":"93707a19","getTierConfig(uint8)":"c022c523","lastUpdateTime()":"c8f33c91","owner()":"8da5cb5b","pause()":"8456cb59","paused()":"5c975abb","performanceFeeBps()":"b9d4e879","recoverERC20(address,uint256)":"8980f11f","referralBonusBps()":"195ad3d5","referralCount(address)":"db74559b","referralEarnings(address)":"c07b528a","renounceOwnership()":"715018a6","rewardPerToken()":"cd3daf9d","rewardPerTokenStored()":"df136d65","rewardRatePerSecond()":"5d773b2c","rewardToken()":"f7c618c1","setPerformanceFee(uint256)":"70897b23","setReferralBonus(uint256)":"9a037aa0","setRewardRate(uint256)":"9e447fc6","setTreasury(address)":"f0f44260","stake(uint256,uint8,address)":"7cc2a960","stakingToken()":"72f702f3","tierConfigs(uint8)":"9da9db2a","timeUntilUnlock(address)":"d0228e8f","totalStaked()":"817b1cd2","transferOwnership(address)":"f2fde38b","treasury()":"61d027b3","unpause()":"3f4ba83a","updateTierConfig(uint8,uint256,uint256)":"d38cd9bf","userInfo(address)":"1959a002","withdraw(uint256)":"2e1a7d4d"},"id":93}