{"abi":[{"type":"constructor","inputs":[{"name":"_stakingToken","type":"address","internalType":"address"},{"name":"_owner","type":"address","internalType":"address"}],"stateMutability":"nonpayable"},{"type":"function","name":"CLOCK_MODE","inputs":[],"outputs":[{"name":"","type":"string","internalType":"string"}],"stateMutability":"view"},{"type":"function","name":"DOMAIN_SEPARATOR","inputs":[],"outputs":[{"name":"","type":"bytes32","internalType":"bytes32"}],"stateMutability":"view"},{"type":"function","name":"MAX_LOCK_DURATION","inputs":[],"outputs":[{"name":"","type":"uint256","internalType":"uint256"}],"stateMutability":"view"},{"type":"function","name":"MIN_LOCK_DURATION","inputs":[],"outputs":[{"name":"","type":"uint256","internalType":"uint256"}],"stateMutability":"view"},{"type":"function","name":"PRECISION","inputs":[],"outputs":[{"name":"","type":"uint256","internalType":"uint256"}],"stateMutability":"view"},{"type":"function","name":"allowance","inputs":[{"name":"owner","type":"address","internalType":"address"},{"name":"spender","type":"address","internalType":"address"}],"outputs":[{"name":"","type":"uint256","internalType":"uint256"}],"stateMutability":"view"},{"type":"function","name":"approve","inputs":[{"name":"spender","type":"address","internalType":"address"},{"name":"value","type":"uint256","internalType":"uint256"}],"outputs":[{"name":"","type":"bool","internalType":"bool"}],"stateMutability":"nonpayable"},{"type":"function","name":"balanceOf","inputs":[{"name":"account","type":"address","internalType":"address"}],"outputs":[{"name":"","type":"uint256","internalType":"uint256"}],"stateMutability":"view"},{"type":"function","name":"checkpoints","inputs":[{"name":"account","type":"address","internalType":"address"},{"name":"pos","type":"uint32","internalType":"uint32"}],"outputs":[{"name":"","type":"tuple","internalType":"struct Checkpoints.Checkpoint208","components":[{"name":"_key","type":"uint48","internalType":"uint48"},{"name":"_value","type":"uint208","internalType":"uint208"}]}],"stateMutability":"view"},{"type":"function","name":"clock","inputs":[],"outputs":[{"name":"","type":"uint48","internalType":"uint48"}],"stateMutability":"view"},{"type":"function","name":"decimals","inputs":[],"outputs":[{"name":"","type":"uint8","internalType":"uint8"}],"stateMutability":"view"},{"type":"function","name":"delegate","inputs":[{"name":"delegatee","type":"address","internalType":"address"}],"outputs":[],"stateMutability":"nonpayable"},{"type":"function","name":"delegateBySig","inputs":[{"name":"delegatee","type":"address","internalType":"address"},{"name":"nonce","type":"uint256","internalType":"uint256"},{"name":"expiry","type":"uint256","internalType":"uint256"},{"name":"v","type":"uint8","internalType":"uint8"},{"name":"r","type":"bytes32","internalType":"bytes32"},{"name":"s","type":"bytes32","internalType":"bytes32"}],"outputs":[],"stateMutability":"nonpayable"},{"type":"function","name":"delegates","inputs":[{"name":"account","type":"address","internalType":"address"}],"outputs":[{"name":"","type":"address","internalType":"address"}],"stateMutability":"view"},{"type":"function","name":"eip712Domain","inputs":[],"outputs":[{"name":"fields","type":"bytes1","internalType":"bytes1"},{"name":"name","type":"string","internalType":"string"},{"name":"version","type":"string","internalType":"string"},{"name":"chainId","type":"uint256","internalType":"uint256"},{"name":"verifyingContract","type":"address","internalType":"address"},{"name":"salt","type":"bytes32","internalType":"bytes32"},{"name":"extensions","type":"uint256[]","internalType":"uint256[]"}],"stateMutability":"view"},{"type":"function","name":"extendLock","inputs":[{"name":"_additionalDuration","type":"uint256","internalType":"uint256"}],"outputs":[],"stateMutability":"nonpayable"},{"type":"function","name":"getPastTotalSupply","inputs":[{"name":"timepoint","type":"uint256","internalType":"uint256"}],"outputs":[{"name":"","type":"uint256","internalType":"uint256"}],"stateMutability":"view"},{"type":"function","name":"getPastVotes","inputs":[{"name":"account","type":"address","internalType":"address"},{"name":"timepoint","type":"uint256","internalType":"uint256"}],"outputs":[{"name":"","type":"uint256","internalType":"uint256"}],"stateMutability":"view"},{"type":"function","name":"getVotes","inputs":[{"name":"account","type":"address","internalType":"address"}],"outputs":[{"name":"","type":"uint256","internalType":"uint256"}],"stateMutability":"view"},{"type":"function","name":"increaseLock","inputs":[{"name":"_additionalAmount","type":"uint256","internalType":"uint256"}],"outputs":[],"stateMutability":"nonpayable"},{"type":"function","name":"lock","inputs":[{"name":"_amount","type":"uint256","internalType":"uint256"},{"name":"_lockDuration","type":"uint256","internalType":"uint256"}],"outputs":[],"stateMutability":"nonpayable"},{"type":"function","name":"locks","inputs":[{"name":"","type":"address","internalType":"address"}],"outputs":[{"name":"amount","type":"uint256","internalType":"uint256"},{"name":"lockEnd","type":"uint256","internalType":"uint256"},{"name":"lockedAt","type":"uint256","internalType":"uint256"}],"stateMutability":"view"},{"type":"function","name":"name","inputs":[],"outputs":[{"name":"","type":"string","internalType":"string"}],"stateMutability":"view"},{"type":"function","name":"nonces","inputs":[{"name":"owner","type":"address","internalType":"address"}],"outputs":[{"name":"","type":"uint256","internalType":"uint256"}],"stateMutability":"view"},{"type":"function","name":"numCheckpoints","inputs":[{"name":"account","type":"address","internalType":"address"}],"outputs":[{"name":"","type":"uint32","internalType":"uint32"}],"stateMutability":"view"},{"type":"function","name":"owner","inputs":[],"outputs":[{"name":"","type":"address","internalType":"address"}],"stateMutability":"view"},{"type":"function","name":"permit","inputs":[{"name":"owner","type":"address","internalType":"address"},{"name":"spender","type":"address","internalType":"address"},{"name":"value","type":"uint256","internalType":"uint256"},{"name":"deadline","type":"uint256","internalType":"uint256"},{"name":"v","type":"uint8","internalType":"uint8"},{"name":"r","type":"bytes32","internalType":"bytes32"},{"name":"s","type":"bytes32","internalType":"bytes32"}],"outputs":[],"stateMutability":"nonpayable"},{"type":"function","name":"previewVeAmount","inputs":[{"name":"_amount","type":"uint256","internalType":"uint256"},{"name":"_duration","type":"uint256","internalType":"uint256"}],"outputs":[{"name":"","type":"uint256","internalType":"uint256"}],"stateMutability":"pure"},{"type":"function","name":"renounceOwnership","inputs":[],"outputs":[],"stateMutability":"nonpayable"},{"type":"function","name":"stakingToken","inputs":[],"outputs":[{"name":"","type":"address","internalType":"contract IERC20"}],"stateMutability":"view"},{"type":"function","name":"symbol","inputs":[],"outputs":[{"name":"","type":"string","internalType":"string"}],"stateMutability":"view"},{"type":"function","name":"timeUntilUnlock","inputs":[{"name":"_user","type":"address","internalType":"address"}],"outputs":[{"name":"","type":"uint256","internalType":"uint256"}],"stateMutability":"view"},{"type":"function","name":"totalLocked","inputs":[],"outputs":[{"name":"","type":"uint256","internalType":"uint256"}],"stateMutability":"view"},{"type":"function","name":"totalSupply","inputs":[],"outputs":[{"name":"","type":"uint256","internalType":"uint256"}],"stateMutability":"view"},{"type":"function","name":"transfer","inputs":[{"name":"","type":"address","internalType":"address"},{"name":"","type":"uint256","internalType":"uint256"}],"outputs":[{"name":"","type":"bool","internalType":"bool"}],"stateMutability":"pure"},{"type":"function","name":"transferFrom","inputs":[{"name":"","type":"address","internalType":"address"},{"name":"","type":"address","internalType":"address"},{"name":"","type":"uint256","internalType":"uint256"}],"outputs":[{"name":"","type":"bool","internalType":"bool"}],"stateMutability":"pure"},{"type":"function","name":"transferOwnership","inputs":[{"name":"newOwner","type":"address","internalType":"address"}],"outputs":[],"stateMutability":"nonpayable"},{"type":"function","name":"unlock","inputs":[],"outputs":[],"stateMutability":"nonpayable"},{"type":"event","name":"Approval","inputs":[{"name":"owner","type":"address","indexed":true,"internalType":"address"},{"name":"spender","type":"address","indexed":true,"internalType":"address"},{"name":"value","type":"uint256","indexed":false,"internalType":"uint256"}],"anonymous":false},{"type":"event","name":"DelegateChanged","inputs":[{"name":"delegator","type":"address","indexed":true,"internalType":"address"},{"name":"fromDelegate","type":"address","indexed":true,"internalType":"address"},{"name":"toDelegate","type":"address","indexed":true,"internalType":"address"}],"anonymous":false},{"type":"event","name":"DelegateVotesChanged","inputs":[{"name":"delegate","type":"address","indexed":true,"internalType":"address"},{"name":"previousVotes","type":"uint256","indexed":false,"internalType":"uint256"},{"name":"newVotes","type":"uint256","indexed":false,"internalType":"uint256"}],"anonymous":false},{"type":"event","name":"EIP712DomainChanged","inputs":[],"anonymous":false},{"type":"event","name":"LockExtended","inputs":[{"name":"user","type":"address","indexed":true,"internalType":"address"},{"name":"newLockEnd","type":"uint256","indexed":false,"internalType":"uint256"},{"name":"newVeAmount","type":"uint256","indexed":false,"internalType":"uint256"}],"anonymous":false},{"type":"event","name":"Locked","inputs":[{"name":"user","type":"address","indexed":true,"internalType":"address"},{"name":"amount","type":"uint256","indexed":false,"internalType":"uint256"},{"name":"lockEnd","type":"uint256","indexed":false,"internalType":"uint256"},{"name":"veAmount","type":"uint256","indexed":false,"internalType":"uint256"}],"anonymous":false},{"type":"event","name":"OwnershipTransferred","inputs":[{"name":"previousOwner","type":"address","indexed":true,"internalType":"address"},{"name":"newOwner","type":"address","indexed":true,"internalType":"address"}],"anonymous":false},{"type":"event","name":"Transfer","inputs":[{"name":"from","type":"address","indexed":true,"internalType":"address"},{"name":"to","type":"address","indexed":true,"internalType":"address"},{"name":"value","type":"uint256","indexed":false,"internalType":"uint256"}],"anonymous":false},{"type":"event","name":"Unlocked","inputs":[{"name":"user","type":"address","indexed":true,"internalType":"address"},{"name":"amount","type":"uint256","indexed":false,"internalType":"uint256"}],"anonymous":false},{"type":"error","name":"CheckpointUnorderedInsertion","inputs":[]},{"type":"error","name":"ECDSAInvalidSignature","inputs":[]},{"type":"error","name":"ECDSAInvalidSignatureLength","inputs":[{"name":"length","type":"uint256","internalType":"uint256"}]},{"type":"error","name":"ECDSAInvalidSignatureS","inputs":[{"name":"s","type":"bytes32","internalType":"bytes32"}]},{"type":"error","name":"ERC20ExceededSafeSupply","inputs":[{"name":"increasedSupply","type":"uint256","internalType":"uint256"},{"name":"cap","type":"uint256","internalType":"uint256"}]},{"type":"error","name":"ERC20InsufficientAllowance","inputs":[{"name":"spender","type":"address","internalType":"address"},{"name":"allowance","type":"uint256","internalType":"uint256"},{"name":"needed","type":"uint256","internalType":"uint256"}]},{"type":"error","name":"ERC20InsufficientBalance","inputs":[{"name":"sender","type":"address","internalType":"address"},{"name":"balance","type":"uint256","internalType":"uint256"},{"name":"needed","type":"uint256","internalType":"uint256"}]},{"type":"error","name":"ERC20InvalidApprover","inputs":[{"name":"approver","type":"address","internalType":"address"}]},{"type":"error","name":"ERC20InvalidReceiver","inputs":[{"name":"receiver","type":"address","internalType":"address"}]},{"type":"error","name":"ERC20InvalidSender","inputs":[{"name":"sender","type":"address","internalType":"address"}]},{"type":"error","name":"ERC20InvalidSpender","inputs":[{"name":"spender","type":"address","internalType":"address"}]},{"type":"error","name":"ERC2612ExpiredSignature","inputs":[{"name":"deadline","type":"uint256","internalType":"uint256"}]},{"type":"error","name":"ERC2612InvalidSigner","inputs":[{"name":"signer","type":"address","internalType":"address"},{"name":"owner","type":"address","internalType":"address"}]},{"type":"error","name":"ERC5805FutureLookup","inputs":[{"name":"timepoint","type":"uint256","internalType":"uint256"},{"name":"clock","type":"uint48","internalType":"uint48"}]},{"type":"error","name":"ERC6372InconsistentClock","inputs":[]},{"type":"error","name":"InvalidAccountNonce","inputs":[{"name":"account","type":"address","internalType":"address"},{"name":"currentNonce","type":"uint256","internalType":"uint256"}]},{"type":"error","name":"InvalidShortString","inputs":[]},{"type":"error","name":"OwnableInvalidOwner","inputs":[{"name":"owner","type":"address","internalType":"address"}]},{"type":"error","name":"OwnableUnauthorizedAccount","inputs":[{"name":"account","type":"address","internalType":"address"}]},{"type":"error","name":"ReentrancyGuardReentrantCall","inputs":[]},{"type":"error","name":"SafeCastOverflowedUintDowncast","inputs":[{"name":"bits","type":"uint8","internalType":"uint8"},{"name":"value","type":"uint256","internalType":"uint256"}]},{"type":"error","name":"StringTooLong","inputs":[{"name":"str","type":"string","internalType":"string"}]},{"type":"error","name":"VotesExpiredSignature","inputs":[{"name":"expiry","type":"uint256","internalType":"uint256"}]}],"bytecode":{"object":"0x61018060405234801562000011575f80fd5b5060405162002e1538038062002e158339810160408190526200003491620002f6565b8060405180604001604052806011815260200170566f74652d457363726f7765642053544b60781b81525080604051806040016040528060018152602001603160f81b81525060405180604001604052806011815260200170566f74652d457363726f7765642053544b60781b81525060405180604001604052806005815260200164766553544b60d81b8152508160039081620000d39190620003ca565b506004620000e28282620003ca565b50620000f4915083905060056200020f565b61012052620001058160066200020f565b61014052815160208084019190912060e052815190820120610100524660a0526200019260e05161010051604080517f8b73c3c69bb8fe3d512ecc4cf759cc79239f7b179b0ffacaa9a75d522b39400f60208201529081019290925260608201524660808201523060a08201525f9060c00160405160208183030381529060405280519060200120905090565b60805250503060c052506001600160a01b038116620001cb57604051631e4fbdf760e01b81525f60048201526024015b60405180910390fd5b620001d68162000247565b5060017f9b779b17422d0df92223018b32b4d1fa46e071723d6817e2486d003becc55f0055506001600160a01b03166101605262000508565b5f6020835110156200022e57620002268362000298565b905062000241565b816200023b8482620003ca565b5060ff90505b92915050565b600b80546001600160a01b038381166001600160a01b0319831681179093556040519116919082907f8be0079c531659141344cd1fd0a4f28419497f9722a3daafe3b4186f6b6457e0905f90a35050565b5f80829050601f81511115620002c5578260405163305a27a960e01b8152600401620001c2919062000496565b8051620002d282620004e4565b179392505050565b80516001600160a01b0381168114620002f1575f80fd5b919050565b5f806040838503121562000308575f80fd5b6200031383620002da565b91506200032360208401620002da565b90509250929050565b634e487b7160e01b5f52604160045260245ffd5b600181811c908216806200035557607f821691505b6020821081036200037457634e487b7160e01b5f52602260045260245ffd5b50919050565b601f821115620003c557805f5260205f20601f840160051c81016020851015620003a15750805b601f840160051c820191505b81811015620003c2575f8155600101620003ad565b50505b505050565b81516001600160401b03811115620003e657620003e66200032c565b620003fe81620003f7845462000340565b846200037a565b602080601f83116001811462000434575f84156200041c5750858301515b5f19600386901b1c1916600185901b1785556200048e565b5f85815260208120601f198616915b82811015620004645788860151825594840194600190910190840162000443565b50858210156200048257878501515f19600388901b60f8161c191681555b505060018460011b0185555b505050505050565b5f602080835283518060208501525f5b81811015620004c457858101830151858201604001528201620004a6565b505f604082860101526040601f19601f8301168501019250505092915050565b8051602080830151919081101562000374575f1960209190910360031b1b16919050565b60805160a05160c05160e0516101005161012051610140516101605161289c620005795f395f81816104230152818161085e01528181610a820152610fef01525f61175201525f61172501525f61146501525f61143d01525f61139801525f6113c201525f6113ec015261289c5ff3fe608060405234801561000f575f80fd5b5060043610610229575f3560e01c8063715018a61161012a5780639ab24eb0116100b4578063d0228e8f11610079578063d0228e8f14610513578063d505accf14610526578063dd62ed3e14610539578063f1127ed814610571578063f2fde38b146105b0575f80fd5b80639ab24eb0146104c8578063a69df4b5146104db578063a9059cbb146104e3578063aaf5eb68146104f1578063c3cda52014610500575f80fd5b806384b0196e116100fa57806384b0196e146104625780638da5cb5b1461047d5780638e539e8c1461048e57806391ddadf4146104a157806395d89b41146104c0575f80fd5b8063715018a61461041657806372f702f31461041e57806378b4330f146104455780637ecebe001461044f575f80fd5b80633a46b1a8116101b6578063587cde1e1161017b578063587cde1e146103275780635c19a95c1461036a5780635de9a1371461037d5780636fcfff45146103c657806370a08231146103ee575f80fd5b80633a46b1a8146102e557806344ee3a1c146102f85780634bf5d7e91461030b5780634f1bfc9e14610313578063568914121461031e575f80fd5b806318160ddd116101fc57806318160ddd146102a05780631c5a0914146102a857806323b872dd146102bb578063313ce567146102ce5780633644e515146102dd575f80fd5b806305ec979e1461022d57806306fdde0314610253578063095ea7b3146102685780631338736f1461028b575b5f80fd5b61024061023b36600461240d565b6105c3565b6040519081526020015b60405180910390f35b61025b6105e6565b60405161024a9190612470565b61027b61027636600461249d565b610676565b604051901515815260200161024a565b61029e61029936600461240d565b61068d565b005b600254610240565b61029e6102b63660046124c5565b61093a565b61027b6102c93660046124dc565b610b63565b6040516012815260200161024a565b610240610bad565b6102406102f336600461249d565b610bbb565b61029e6103063660046124c5565b610bf5565b61025b610d9a565b610240630784ce0081565b610240600d5481565b610352610335366004612515565b6001600160a01b039081165f908152600860205260409020541690565b6040516001600160a01b03909116815260200161024a565b61029e610378366004612515565b610e12565b6103ab61038b366004612515565b600c6020525f908152604090208054600182015460029092015490919083565b6040805193845260208401929092529082015260600161024a565b6103d96103d4366004612515565b610e1d565b60405163ffffffff909116815260200161024a565b6102406103fc366004612515565b6001600160a01b03165f9081526020819052604090205490565b61029e610e27565b6103527f000000000000000000000000000000000000000000000000000000000000000081565b61024062093a8081565b61024061045d366004612515565b610e3a565b61046a610e44565b60405161024a979695949392919061252e565b600b546001600160a01b0316610352565b61024061049c3660046124c5565b610e86565b6104a9610eaa565b60405165ffffffffffff909116815260200161024a565b61025b610eb3565b6102406104d6366004612515565b610ec2565b61029e610ee2565b61027b6102c936600461249d565b610240670de0b6b3a764000081565b61029e61050e3660046125d5565b6110a7565b610240610521366004612515565b611163565b61029e610534366004612629565b61119e565b61024061054736600461268e565b6001600160a01b039182165f90815260016020908152604080832093909416825291909152205490565b61058461057f3660046126bf565b6112d4565b60408051825165ffffffffffff1681526020928301516001600160d01b0316928101929092520161024a565b61029e6105be366004612515565b6112f1565b5f630784ce006105d38385612710565b6105dd919061273b565b90505b92915050565b6060600380546105f59061275a565b80601f01602080910402602001604051908101604052809291908181526020018280546106219061275a565b801561066c5780601f106106435761010080835404028352916020019161066c565b820191905f5260205f20905b81548152906001019060200180831161064f57829003601f168201915b5050505050905090565b5f3361068381858561132b565b5060019392505050565b61069561133d565b5f82116106d95760405162461bcd60e51b815260206004820152600d60248201526c043616e6e6f74206c6f636b203609c1b60448201526064015b60405180910390fd5b62093a8081101561071d5760405162461bcd60e51b815260206004820152600e60248201526d131bd8dac81d1bdbc81cda1bdc9d60921b60448201526064016106d0565b630784ce008111156107615760405162461bcd60e51b815260206004820152600d60248201526c4c6f636b20746f6f206c6f6e6760981b60448201526064016106d0565b335f908152600c6020526040902054156107cd5760405162461bcd60e51b815260206004820152602760248201527f416c7265616479206c6f636b6564202d2075736520657874656e64206f7220696044820152666e63726561736560c81b60648201526084016106d0565b5f6107d88242612792565b90505f6107e584846105c3565b60408051606081018252868152602080820186815242838501908152335f908152600c909352938220925183555160018301559151600290910155600d80549293508692909190610837908490612792565b90915550506040516323b872dd60e01b8152336004820152306024820152604481018590527f00000000000000000000000000000000000000000000000000000000000000006001600160a01b0316906323b872dd906064016020604051808303815f875af11580156108ac573d5f803e3d5ffd5b505050506040513d601f19601f820116820180604052508101906108d091906127a5565b506108db3382611358565b604080518581526020810184905290810182905233907f44cebfefa4561bee5b61d675ccfd8dc9969fff9cc15e7a4eccccd62af94f9c119060600160405180910390a2505061093660015f8051602061284783398151915255565b5050565b61094261133d565b335f908152600c6020526040902080546109915760405162461bcd60e51b815260206004820152601060248201526f4e6f206578697374696e67206c6f636b60801b60448201526064016106d0565b806001015442106109d35760405162461bcd60e51b815260206004820152600c60248201526b131bd8dac8195e1c1a5c995960a21b60448201526064016106d0565b5f8211610a115760405162461bcd60e51b815260206004820152600c60248201526b043616e6e6f742061646420360a41b60448201526064016106d0565b5f428260010154610a2291906127c4565b90505f610a2f84836105c3565b905083835f015f828254610a439190612792565b9250508190555083600d5f828254610a5b9190612792565b90915550506040516323b872dd60e01b8152336004820152306024820152604481018590527f00000000000000000000000000000000000000000000000000000000000000006001600160a01b0316906323b872dd906064016020604051808303815f875af1158015610ad0573d5f803e3d5ffd5b505050506040513d601f19601f82011682018060405250810190610af491906127a5565b50610aff3382611358565b6001830154604080518681526020810192909252810182905233907f44cebfefa4561bee5b61d675ccfd8dc9969fff9cc15e7a4eccccd62af94f9c119060600160405180910390a2505050610b6060015f8051602061284783398151915255565b50565b60405162461bcd60e51b815260206004820152601760248201527f766553544b3a206e6f6e2d7472616e7366657261626c6500000000000000000060448201525f906064016106d0565b5f610bb661138c565b905090565b5f610be5610bc8836114b5565b6001600160a01b0385165f90815260096020526040902090611503565b6001600160d01b03169392505050565b610bfd61133d565b335f908152600c602052604090208054610c4c5760405162461bcd60e51b815260206004820152601060248201526f4e6f206578697374696e67206c6f636b60801b60448201526064016106d0565b5f8211610c9b5760405162461bcd60e51b815260206004820152601960248201527f4475726174696f6e206d75737420626520706f7369746976650000000000000060448201526064016106d0565b5f828260010154610cac9190612792565b9050610cbc630784ce0042612792565b811115610cfe5760405162461bcd60e51b815260206004820152601060248201526f45786365656473206d6178206c6f636b60801b60448201526064016106d0565b335f81815260208190526040902054610d1791906115b3565b5f610d2242836127c4565b90505f610d32845f0154836105c3565b600185018490559050610d453382611358565b604080518481526020810183905233917f050932e79e5bc73d7c0e6856f9b80ae760803919f72fdb530c47608b3c2ffbd8910160405180910390a250505050610b6060015f8051602061284783398151915255565b6060610da46115e7565b65ffffffffffff16610db4610eaa565b65ffffffffffff1614610dda576040516301bfc1c560e61b815260040160405180910390fd5b5060408051808201909152601d81527f6d6f64653d626c6f636b6e756d6265722666726f6d3d64656661756c74000000602082015290565b3361093681836115f1565b5f6105e082611662565b610e2f611683565b610e385f6116b0565b565b5f6105e082611701565b5f6060805f805f6060610e5561171e565b610e5d61174b565b604080515f80825260208201909252600f60f81b9b939a50919850469750309650945092509050565b5f610e9b610e93836114b5565b600a90611503565b6001600160d01b031692915050565b5f610bb66115e7565b6060600480546105f59061275a565b6001600160a01b0381165f908152600960205260408120610e9b90611778565b610eea61133d565b335f908152600c602052604090208054610f375760405162461bcd60e51b815260206004820152600e60248201526d139bdd1a1a5b99c81b1bd8dad95960921b60448201526064016106d0565b8060010154421015610f7a5760405162461bcd60e51b815260206004820152600c60248201526b14dd1a5b1b081b1bd8dad95960a21b60448201526064016106d0565b8054335f81815260208190526040902054610f9591906115b3565b80600d5f828254610fa691906127c4565b9091555050335f818152600c602052604080822082815560018101839055600201919091555163a9059cbb60e01b81526004810191909152602481018290526001600160a01b037f0000000000000000000000000000000000000000000000000000000000000000169063a9059cbb906044016020604051808303815f875af1158015611035573d5f803e3d5ffd5b505050506040513d601f19601f8201168201806040525081019061105991906127a5565b5060405181815233907f0f0bc5b519ddefdd8e5f9e6423433aa2b869738de2ae34d58ebc796fc749fa0d9060200160405180910390a25050610e3860015f8051602061284783398151915255565b834211156110cb57604051632341d78760e11b8152600481018590526024016106d0565b604080517fe48329057bfd03d55e49b547132e39cffd9c1820ad7b9d4c5307691425d15adf60208201526001600160a01b0388169181019190915260608101869052608081018590525f906111449061113c9060a001604051602081830303815290604052805190602001206117af565b8585856117db565b90506111508187611807565b61115a81886115f1565b50505050505050565b6001600160a01b0381165f908152600c602052604081206001015442811161118d57505f92915050565b61119742826127c4565b9392505050565b834211156111c25760405163313c898160e11b8152600481018590526024016106d0565b5f7f6e71edae12b1b97f4d1f60370fef10105fa2faae0126114a169c64845d6126c988888861120d8c6001600160a01b03165f90815260076020526040902080546001810190915590565b6040805160208101969096526001600160a01b0394851690860152929091166060840152608083015260a082015260c0810186905260e0016040516020818303038152906040528051906020012090505f611267826117af565b90505f611276828787876117db565b9050896001600160a01b0316816001600160a01b0316146112bd576040516325c0072360e11b81526001600160a01b0380831660048301528b1660248201526044016106d0565b6112c88a8a8a61132b565b50505050505050505050565b604080518082019091525f80825260208201526105dd8383611859565b6112f9611683565b6001600160a01b03811661132257604051631e4fbdf760e01b81525f60048201526024016106d0565b610b60816116b0565b611338838383600161188d565b505050565b611345611960565b60025f8051602061284783398151915255565b6001600160a01b0382166113815760405163ec442f0560e01b81525f60048201526024016106d0565b6109365f838361198f565b5f306001600160a01b037f0000000000000000000000000000000000000000000000000000000000000000161480156113e457507f000000000000000000000000000000000000000000000000000000000000000046145b1561140e57507f000000000000000000000000000000000000000000000000000000000000000090565b610bb6604080517f8b73c3c69bb8fe3d512ecc4cf759cc79239f7b179b0ffacaa9a75d522b39400f60208201527f0000000000000000000000000000000000000000000000000000000000000000918101919091527f000000000000000000000000000000000000000000000000000000000000000060608201524660808201523060a08201525f9060c00160405160208183030381529060405280519060200120905090565b5f806114bf610eaa565b90508065ffffffffffff1683106114fa57604051637669fc0f60e11b81526004810184905265ffffffffffff821660248201526044016106d0565b6111978361199a565b81545f908181600581111561155f575f61151c846119d0565b61152690856127c4565b5f8881526020902090915081015465ffffffffffff908116908716101561154f5780915061155d565b61155a816001612792565b92505b505b5f61156c87878585611b28565b905080156115a657611590876115836001846127c4565b5f91825260209091200190565b54600160301b90046001600160d01b03166115a8565b5f5b979650505050505050565b6001600160a01b0382166115dc57604051634b637e8f60e11b81525f60048201526024016106d0565b610936825f8361198f565b5f610bb64361199a565b6001600160a01b038281165f8181526008602052604080822080548686166001600160a01b0319821681179092559151919094169392849290917f3134e8a2e6d97e929a7e54011ea5485d7d196dd5f0ba4d4ef95803e8e3fc257f9190a4611338818361165d86611b7e565b611b9b565b6001600160a01b0381165f908152600960205260408120546105e090611d04565b600b546001600160a01b03163314610e385760405163118cdaa760e01b81523360048201526024016106d0565b600b80546001600160a01b038381166001600160a01b0319831681179093556040519116919082907f8be0079c531659141344cd1fd0a4f28419497f9722a3daafe3b4186f6b6457e0905f90a35050565b6001600160a01b0381165f908152600760205260408120546105e0565b6060610bb67f00000000000000000000000000000000000000000000000000000000000000006005611d34565b6060610bb67f00000000000000000000000000000000000000000000000000000000000000006006611d34565b80545f9080156117a757611791836115836001846127c4565b54600160301b90046001600160d01b0316611197565b5f9392505050565b5f6105e06117bb61138c565b8360405161190160f01b8152600281019290925260228201526042902090565b5f805f806117eb88888888611ddd565b9250925092506117fb8282611ea5565b50909695505050505050565b6001600160a01b0382165f908152600760205260409020805460018101909155818114611338576040516301d4b62360e61b81526001600160a01b0384166004820152602481018290526044016106d0565b604080518082019091525f80825260208201526001600160a01b0383165f9081526009602052604090206105dd9083611f5d565b6001600160a01b0384166118b65760405163e602df0560e01b81525f60048201526024016106d0565b6001600160a01b0383166118df57604051634a1406b160e11b81525f60048201526024016106d0565b6001600160a01b038085165f908152600160209081526040808320938716835292905220829055801561195a57826001600160a01b0316846001600160a01b03167f8c5be1e5ebec7d5bd14f71427d1e84f3dd0314c0f7b2291e5b200ac8c7c3b9258460405161195191815260200190565b60405180910390a35b50505050565b5f8051602061284783398151915254600203610e3857604051633ee5aeb560e01b815260040160405180910390fd5b611338838383611fca565b5f65ffffffffffff8211156119cc576040516306dfcc6560e41b815260306004820152602481018390526044016106d0565b5090565b5f600182116119dd575090565b816001600160801b82106119f65760809190911c9060401b5b680100000000000000008210611a115760409190911c9060201b5b6401000000008210611a285760209190911c9060101b5b620100008210611a3d5760109190911c9060081b5b6101008210611a515760089190911c9060041b5b60108210611a645760049190911c9060021b5b60048210611a705760011b5b600302600190811c90818581611a8857611a88612727565b048201901c90506001818581611aa057611aa0612727565b048201901c90506001818581611ab857611ab8612727565b048201901c90506001818581611ad057611ad0612727565b048201901c90506001818581611ae857611ae8612727565b048201901c90506001818581611b0057611b00612727565b048201901c9050611b1f818581611b1957611b19612727565b04821190565b90039392505050565b5f5b81831015611b76575f85815260209020838316600285851804019081015465ffffffffffff86811691161115611b6257809250611b70565b611b6d816001612792565b93505b50611b2a565b509392505050565b6001600160a01b0381165f908152602081905260408120546105e0565b816001600160a01b0316836001600160a01b031614158015611bbc57505f81115b15611338576001600160a01b03831615611c63576001600160a01b0383165f9081526009602052604081208190611bfe90612030611bf98661203b565b61206e565b6001600160d01b031691506001600160d01b03169150846001600160a01b03167fdec2bacdd2f05b59de34da9b523dff8be42e5e38e818c82fdb0bae774387a7248383604051611c58929190918252602082015260400190565b60405180910390a250505b6001600160a01b03821615611338576001600160a01b0382165f9081526009602052604081208190611c9b906120a6611bf98661203b565b6001600160d01b031691506001600160d01b03169150836001600160a01b03167fdec2bacdd2f05b59de34da9b523dff8be42e5e38e818c82fdb0bae774387a7248383604051611cf5929190918252602082015260400190565b60405180910390a25050505050565b5f63ffffffff8211156119cc576040516306dfcc6560e41b815260206004820152602481018390526044016106d0565b606060ff8314611d4e57611d47836120b1565b90506105e0565b818054611d5a9061275a565b80601f0160208091040260200160405190810160405280929190818152602001828054611d869061275a565b8015611dd15780601f10611da857610100808354040283529160200191611dd1565b820191905f5260205f20905b815481529060010190602001808311611db457829003601f168201915b505050505090506105e0565b5f80807f7fffffffffffffffffffffffffffffff5d576e7357a4501ddfe92f46681b20a0841115611e1657505f91506003905082611e9b565b604080515f808252602082018084528a905260ff891692820192909252606081018790526080810186905260019060a0016020604051602081039080840390855afa158015611e67573d5f803e3d5ffd5b5050604051601f1901519150506001600160a01b038116611e9257505f925060019150829050611e9b565b92505f91508190505b9450945094915050565b5f826003811115611eb857611eb86127d7565b03611ec1575050565b6001826003811115611ed557611ed56127d7565b03611ef35760405163f645eedf60e01b815260040160405180910390fd5b6002826003811115611f0757611f076127d7565b03611f285760405163fce698f760e01b8152600481018290526024016106d0565b6003826003811115611f3c57611f3c6127d7565b03610936576040516335e2f38360e21b8152600481018290526024016106d0565b604080518082019091525f8082526020820152825f018263ffffffff1681548110611f8a57611f8a6127eb565b5f9182526020918290206040805180820190915291015465ffffffffffff81168252600160301b90046001600160d01b0316918101919091529392505050565b611fd58383836120ee565b6001600160a01b038316612025575f611fed60025490565b90506001600160d01b038082111561202257604051630e58ae9360e11b815260048101839052602481018290526044016106d0565b50505b611338838383612214565b5f6105dd82846127ff565b5f6001600160d01b038211156119cc576040516306dfcc6560e41b815260d06004820152602481018390526044016106d0565b5f8061209961207b610eaa565b61209161208788611778565b868863ffffffff16565b879190612289565b915091505b935093915050565b5f6105dd8284612826565b60605f6120bd83612296565b6040805160208082528183019092529192505f91906020820181803683375050509182525060208101929092525090565b6001600160a01b038316612118578060025f82825461210d9190612792565b909155506121889050565b6001600160a01b0383165f908152602081905260409020548181101561216a5760405163391434e360e21b81526001600160a01b038516600482015260248101829052604481018390526064016106d0565b6001600160a01b0384165f9081526020819052604090209082900390555b6001600160a01b0382166121a4576002805482900390556121c2565b6001600160a01b0382165f9081526020819052604090208054820190555b816001600160a01b0316836001600160a01b03167fddf252ad1be2c89b69c2b068fc378daa952ba7f163c4a11628f55a4df523b3ef8360405161220791815260200190565b60405180910390a3505050565b6001600160a01b03831661223657612233600a6120a6611bf98461203b565b50505b6001600160a01b03821661225857612255600a612030611bf98461203b565b50505b6001600160a01b038381165f9081526008602052604080822054858416835291205461133892918216911683611b9b565b5f806120998585856122bd565b5f60ff8216601f8111156105e057604051632cd44ac360e21b815260040160405180910390fd5b82545f90819080156123b3575f6122d9876115836001856127c4565b805490915065ffffffffffff80821691600160301b90046001600160d01b031690881682111561231c57604051632520601d60e01b815260040160405180910390fd5b8765ffffffffffff168265ffffffffffff160361235557825465ffffffffffff16600160301b6001600160d01b038916021783556123a5565b6040805180820190915265ffffffffffff808a1682526001600160d01b03808a1660208085019182528d54600181018f555f8f81529190912094519151909216600160301b029216919091179101555b945085935061209e92505050565b50506040805180820190915265ffffffffffff80851682526001600160d01b0380851660208085019182528854600181018a555f8a815291822095519251909316600160301b02919093161792019190915590508161209e565b5f806040838503121561241e575f80fd5b50508035926020909101359150565b5f81518084525f5b8181101561245157602081850181015186830182015201612435565b505f602082860101526020601f19601f83011685010191505092915050565b602081525f6105dd602083018461242d565b80356001600160a01b0381168114612498575f80fd5b919050565b5f80604083850312156124ae575f80fd5b6124b783612482565b946020939093013593505050565b5f602082840312156124d5575f80fd5b5035919050565b5f805f606084860312156124ee575f80fd5b6124f784612482565b925061250560208501612482565b9150604084013590509250925092565b5f60208284031215612525575f80fd5b6105dd82612482565b60ff60f81b881681525f602060e0602084015261254e60e084018a61242d565b8381036040850152612560818a61242d565b606085018990526001600160a01b038816608086015260a0850187905284810360c0860152855180825260208088019350909101905f5b818110156125b357835183529284019291840191600101612597565b50909c9b505050505050505050505050565b803560ff81168114612498575f80fd5b5f805f805f8060c087890312156125ea575f80fd5b6125f387612482565b9550602087013594506040870135935061260f606088016125c5565b92506080870135915060a087013590509295509295509295565b5f805f805f805f60e0888a03121561263f575f80fd5b61264888612482565b965061265660208901612482565b95506040880135945060608801359350612672608089016125c5565b925060a0880135915060c0880135905092959891949750929550565b5f806040838503121561269f575f80fd5b6126a883612482565b91506126b660208401612482565b90509250929050565b5f80604083850312156126d0575f80fd5b6126d983612482565b9150602083013563ffffffff811681146126f1575f80fd5b809150509250929050565b634e487b7160e01b5f52601160045260245ffd5b80820281158282048414176105e0576105e06126fc565b634e487b7160e01b5f52601260045260245ffd5b5f8261275557634e487b7160e01b5f52601260045260245ffd5b500490565b600181811c9082168061276e57607f821691505b60208210810361278c57634e487b7160e01b5f52602260045260245ffd5b50919050565b808201808211156105e0576105e06126fc565b5f602082840312156127b5575f80fd5b81518015158114611197575f80fd5b818103818111156105e0576105e06126fc565b634e487b7160e01b5f52602160045260245ffd5b634e487b7160e01b5f52603260045260245ffd5b6001600160d01b0382811682821603908082111561281f5761281f6126fc565b5092915050565b6001600160d01b0381811683821601908082111561281f5761281f6126fc56fe9b779b17422d0df92223018b32b4d1fa46e071723d6817e2486d003becc55f00a2646970667358221220557f2cfa416d8b2406286825b8b750cc5dc9ad8b6cf7f8d07649acedab28772664736f6c63430008180033","linkReferences":{}},"methodIdentifiers":{"CLOCK_MODE()":"4bf5d7e9","DOMAIN_SEPARATOR()":"3644e515","MAX_LOCK_DURATION()":"4f1bfc9e","MIN_LOCK_DURATION()":"78b4330f","PRECISION()":"aaf5eb68","allowance(address,address)":"dd62ed3e","approve(address,uint256)":"095ea7b3","balanceOf(address)":"70a08231","checkpoints(address,uint32)":"f1127ed8","clock()":"91ddadf4","decimals()":"313ce567","delegate(address)":"5c19a95c","delegateBySig(address,uint256,uint256,uint8,bytes32,bytes32)":"c3cda520","delegates(address)":"587cde1e","eip712Domain()":"84b0196e","extendLock(uint256)":"44ee3a1c","getPastTotalSupply(uint256)":"8e539e8c","getPastVotes(address,uint256)":"3a46b1a8","getVotes(address)":"9ab24eb0","increaseLock(uint256)":"1c5a0914","lock(uint256,uint256)":"1338736f","locks(address)":"5de9a137","name()":"06fdde03","nonces(address)":"7ecebe00","numCheckpoints(address)":"6fcfff45","owner()":"8da5cb5b","permit(address,address,uint256,uint256,uint8,bytes32,bytes32)":"d505accf","previewVeAmount(uint256,uint256)":"05ec979e","renounceOwnership()":"715018a6","stakingToken()":"72f702f3","symbol()":"95d89b41","timeUntilUnlock(address)":"d0228e8f","totalLocked()":"56891412","totalSupply()":"18160ddd","transfer(address,uint256)":"a9059cbb","transferFrom(address,address,uint256)":"23b872dd","transferOwnership(address)":"f2fde38b","unlock()":"a69df4b5"},"id":94}